:020000040800F2
:1000000030060020C10100080D0300089F0200080F
:100010000903000809020008E309000800000000C5
:10002000000000000000000000000000490300087C
:100030000D02000800000000250300089D040008D0
:10004000DB010008DB010008DB010008DB01000820
:10005000DB010008DB010008DB010008DB01000810
:10006000DB010008DB010008DB010008DB01000800
:10007000DB010008DB010008DB010008DB010008F0
:10008000DB010008DB010008DB010008DB010008E0
:10009000DB010008DB010008DB010008DB010008D0
:1000A000DB010008DB010008DB010008DB010008C0
:1000B000DB01000809050008DB010008DB0100087E
:1000C000DB010008DB010008DB010008DB010008A0
:1000D000DB010008DB0100082106000875070008A5
:1000E000DB010008DB010008DB010008DB01000880
:1000F000DB010008DB010008DB010008DB01000870
:10010000DB010008DB010008DB010008DB0100085F
:10011000DB010008DB010008DB010008DB0100084F
:10012000DB010008DB010008DB010008DB0100083F
:10013000DB010008DB010008DB010008DB0100082F
:10014000DB010008DB010008DB010008DB0100081F
:10015000DB010008DB010008DB010008DB0100080F
:10016000DB010008DB010008DB010008DB010008FF
:10017000DB010008DB010008DB010008DB010008EF
:10018000DB010008DB010008DB010008DB010008DF
:10019000DB010008DB010008DB010008DB010008CF
:1001A000DB010008DB010008DB010008DFF80CD0F0
:1001B00000F018F800480047190A0008300600202F
:1001C0000648804706480047FEE7FEE7FEE7FEE7F1
:1001D000FEE7FEE7FEE7FEE7FEE7FEE7A104000814
:1001E000AD010008064C074D06E0E06840F0010351
:1001F00094E8070098471034AC42F6D3FFF7DAFFD3
:10020000540A0008740A000800BFFEE77047F0B502
:100210000A4600210023002400BF3DE0012505FA25
:1002200001F3156805EA03049C4234D105684F00C8
:100230000326BE40B543056015794E00B5400668FB
:10024000354305601579012D02D01579022D16D19F
:1002500085684F000326BE40B543856055794E0042
:10026000B540866835438560456801268E40B543B4
:100270004560456896798E40B6B235434560C5689D
:100280004F000326BE40B543C560D5794E00B5404A
:10029000C6683543C560491C1029BFD3F0BD00BFF7
:1002A000FEE700001CB50121482000F03DF80120C8
:1002B0008DF8040000208DF8060001208DF807005D
:1002C00002208DF805000420009069460C48FFF7D5
:1002D0009EFF4FF40040009069460A48FFF797FFE1
:1002E0004FF48040009069460648FFF790FF4FF4B6
:1002F0000050009069460348FFF789FF1CBD0000CD
:1003000000180240000C024000BFFEE770470000EA
:1003100002490143024A1160704700000000FA05DB
:100320000CED00E07047000029B1064A1268024354
:10033000044B1A6004E0034A12688243014B1A60BE
:100340007047000030380240704700000CB50020B4
:10035000019000904348006840F4803041490860B3
:1003600000BF4048006800F4003000900198401C35
:100370000190009818B90198B0F5A04FF1D1394813
:10038000006800F4003010B10120009001E000206E
:1003900000900098012861D132484030006840F058
:1003A00080503049403108602F48006840F4404098
:1003B0002D4908602B48083000682A490831086038
:1003C0000846006840F4004008600846006840F4B1
:1003D000A05008602548091F0860081F006840F009
:1003E0008070091F086000BF1E48006800F00070A0
:1003F0000028F9D01C48006840F480301A49086091
:1004000000BF1948406800F480300028F9D0164831
:10041000006840F400301449086000BF124840688A
:1004200000F400300028F9D040F20570104908604F
:100430000C480830006820F003000A4908310860C1
:100440000846006840F00200086000BF0548083018
:10045000006800F00C000828F8D101E000BFFEE7BA
:100460000CBD00000038024000700040195A4007DF
:10047000003C0240042808D14FF0E021096941F016
:1004800004014FF0E022116107E04FF0E02109691B
:1004900021F004014FF0E022116170477047000025
:1004A00010B51548006840F47000134908601348FF
:1004B000006840F001001149086000200F49083130
:1004C00008600E4800680E4908400C4908600D4855
:1004D000091D0860081F006820F48020091F0860BB
:1004E000002006490C310860FFF730FF4FF0006034
:1004F00001498039086010BD88ED00E000380240F5
:10050000FFFFF6FE1030002410B50024012125481D
:1005100000F053F8002843D00121224800F04AF8A7
:1005200021480068401C20490860084600686FF0B8
:100530000041884202D100201B49086000242BE0C2
:1005400004EB4400194901EB8000408810B304EB30
:10055000440001EB80004088401E04EB4401134A34
:1005600002EB8101488004EB4400114601EB80005E
:10057000408878B9012004EB440102F8210004EB23
:100580004400114601EB8000808804EB440102EB3B
:1005900081014880601CC4B2054800688442CFD302
:1005A00010BD000000040040040000200C000020EA
:1005B0003C000020CA430282704730B5024600204A
:1005C00000230024158A05EA0103958905EA010440
:1005D00013B10CB1012000E0002030BD10B50024A3
:1005E00000BF14E004EB44000B4911F8200060B197
:1005F00004EB4401084A02EB81018868804700202F
:1006000004EB4401044A02F82100601CC4B2034810
:1006100000688442E6D310BD0C0000203C0000209E
:1006200070B50024002540F225514F4800F085F9AF
:1006300000287DD040F225514B4800F06FF94A4820
:1006400000F0CAF9C4B24948007818B900204849F6
:1006500081F86400464890F8641090F86400401CEB
:10066000434A82F864001046445440480078082801
:1006700077D2DFE800F0040522262A2E323B00BFA5
:100680003B4890F86400012808D1FE2C03D00020DC
:100690003649087002E0012034490870344890F867
:1006A0006400022808D1EF2C03D000202F490870E5
:1006B00002E002202D49087054E003202B49087005
:1006C00050E00420294908704CE0052027490870B3
:1006D00048E006202549087044E0254890F8640069
:1006E0000A2802D10720214908703BE0204890F8F1
:1006F00064000C2833D11E48C07A1D49897A40EA2B
:10070000012545F2AA50854226D11948407818495A
:10071000097840EA012015498880154881781348F6
:1007200081711348C1781148C1711148017900E005
:1007300019E00E4801720E4841790C4841720C488C
:10074000D0F806100948C1600948C07A0849897A7A
:1007500040EA01210548018200200449087001E0B7
:10076000FFE700BF00BF70BD00440040040200204E
:100770003A01002070B50024002540F2255163485D
:1007800000F0DBF800287DD040F225515F4800F0F2
:10079000C5F85E4800F020F9C4B25D48007818B989
:1007A00000205C4981F864005A4890F8641090F881
:1007B0006400401C574A82F8640010464454544870
:1007C000007808287ED2DFE800F0040522262A2ED1
:1007D000323D00BF4F4890F86400012808D1FE2C3C
:1007E00003D000204A49087002E0012048490870FF
:1007F000484890F86400022808D1EF2C03D000206C
:100800004349087002E002204149087062E0032079
:100810003F4908705EE004203D4908705AE0052019
:100820003B49087056E006203949087052E03948C3
:1008300090F864104079801D814202D1072034492C
:10084000087047E0334890F86410407908308142DE
:100850003ED130484079C01D2E49095C2D48407971
:10086000801D2C4A105C41EA002545F2AA508542C1
:100870002BD1104640781146097840EA01202449DE
:10088000888000E027E01046817821488171104679
:10089000C1781F48C171104601791D480172104688
:1008A00041791B484172901D1949C860801F4079E9
:1008B000C01D1146095C10464079801D105C41EA5C
:1008C000002100E005E01248018200201049087074
:1008D00000E000BF00BF40F226610C4800F02DF898
:1008E00098B140F22661094800F018F800200A4942
:1008F0000860012240F22551044800F048F8002227
:1009000040F22661014800F042F870BD0048004006
:10091000180200209F010020BC02404210B50022B6
:10092000002340F66A14A14200D100BF0A1201243C
:100930009440A3B2DC43048010BD70B5024600248D
:1009400000230025002040F66A16B14200D100BF06
:10095000C1F3421501F01F03012606FA03F3012D2E
:1009600002D19689334006E0022D02D1168A334027
:1009700001E0968A33400C12012606FA04F4168828
:10098000344013B10CB1012000E0002070BDF0B57F
:100990000346002400260025002040F66A17B942CD
:1009A00000D100BF1846C1F3421401F01F06012711
:1009B00007FA06F5012C01D10C3004E0022C01D11C
:1009C000103000E014301AB107682F43076002E0CE
:1009D0000768AF430760F0BD01468888C0F3080090
:1009E000704700BFFEE702E008C8121F08C1002AD6
:1009F000FAD170477047002001E001C1121F002AA0
:100A0000FBD1704710B504460420FFF733FD0148C1
:100A1000047010BD00000020B420FFF7F3FF4FF476
:100A2000A060FFF775FCFFF73DFC01E0FFF7D6FD86
:100A3000FCE700000448006808B9012000E000203D
:100A40000149086070470000B48241427047704716
:100A500070470000740A00080000002040000000F9
:100A6000E6090008B40A000840000020F005000074
:100A7000F60900080000000000000000000000006F
:100A800000000A000A0000004D0A0008000084036C
:100A900084030000350A0008000032003200000024
:100AA000510A00080000E803E80300004F0A0008AC
:040AB000040000003E
:04000005080001AD41
:00000001FF
